{
  "contractName": "ShipmentTracker",
  "abi": [
    {
      "anonymous": false,
      "inputs": [
        {
          "indexed": false,
          "internalType": "uint256",
          "name": "id",
          "type": "uint256"
        },
        {
          "indexed": false,
          "internalType": "string",
          "name": "owner",
          "type": "string"
        },
        {
          "indexed": false,
          "internalType": "string",
          "name": "description",
          "type": "string"
        },
        {
          "indexed": false,
          "internalType": "string",
          "name": "status",
          "type": "string"
        }
      ],
      "name": "AssetAdded",
      "type": "event"
    },
    {
      "anonymous": false,
      "inputs": [
        {
          "indexed": false,
          "internalType": "uint256",
          "name": "id",
          "type": "uint256"
        },
        {
          "indexed": false,
          "internalType": "string",
          "name": "status",
          "type": "string"
        }
      ],
      "name": "AssetUpdated",
      "type": "event"
    },
    {
      "anonymous": false,
      "inputs": [
        {
          "indexed": false,
          "internalType": "uint256",
          "name": "id",
          "type": "uint256"
        },
        {
          "indexed": false,
          "internalType": "string",
          "name": "from",
          "type": "string"
        },
        {
          "indexed": false,
          "internalType": "string",
          "name": "to",
          "type": "string"
        },
        {
          "indexed": false,
          "internalType": "uint256",
          "name": "timestamp",
          "type": "uint256"
        },
        {
          "indexed": false,
          "internalType": "string",
          "name": "status",
          "type": "string"
        }
      ],
      "name": "OrderAdded",
      "type": "event"
    },
    {
      "anonymous": false,
      "inputs": [
        {
          "indexed": false,
          "internalType": "uint256",
          "name": "orderId",
          "type": "uint256"
        },
        {
          "indexed": false,
          "internalType": "uint256",
          "name": "productId",
          "type": "uint256"
        },
        {
          "indexed": false,
          "internalType": "uint256",
          "name": "quantity",
          "type": "uint256"
        }
      ],
      "name": "OrderItemAdded",
      "type": "event"
    },
    {
      "anonymous": false,
      "inputs": [
        {
          "indexed": false,
          "internalType": "uint256",
          "name": "id",
          "type": "uint256"
        },
        {
          "indexed": false,
          "internalType": "string",
          "name": "status",
          "type": "string"
        }
      ],
      "name": "OrderUpdated",
      "type": "event"
    },
    {
      "anonymous": false,
      "inputs": [
        {
          "indexed": false,
          "internalType": "uint256",
          "name": "id",
          "type": "uint256"
        },
        {
          "indexed": false,
          "internalType": "string",
          "name": "name",
          "type": "string"
        },
        {
          "indexed": false,
          "internalType": "string",
          "name": "description",
          "type": "string"
        }
      ],
      "name": "ProductAdded",
      "type": "event"
    },
    {
      "anonymous": false,
      "inputs": [
        {
          "indexed": false,
          "internalType": "uint256",
          "name": "productId",
          "type": "uint256"
        },
        {
          "indexed": false,
          "internalType": "uint256",
          "name": "timestamp",
          "type": "uint256"
        },
        {
          "indexed": false,
          "internalType": "string",
          "name": "from",
          "type": "string"
        },
        {
          "indexed": false,
          "internalType": "string",
          "name": "to",
          "type": "string"
        },
        {
          "indexed": false,
          "internalType": "string",
          "name": "status",
          "type": "string"
        }
      ],
      "name": "ProductMovementUpdated",
      "type": "event"
    },
    {
      "anonymous": false,
      "inputs": [
        {
          "indexed": false,
          "internalType": "uint256",
          "name": "id",
          "type": "uint256"
        },
        {
          "indexed": false,
          "internalType": "uint256[]",
          "name": "orderIds",
          "type": "uint256[]"
        },
        {
          "indexed": false,
          "internalType": "string",
          "name": "status",
          "type": "string"
        },
        {
          "indexed": false,
          "internalType": "uint256",
          "name": "timestamp",
          "type": "uint256"
        }
      ],
      "name": "ShipmentAdded",
      "type": "event"
    },
    {
      "anonymous": false,
      "inputs": [
        {
          "indexed": false,
          "internalType": "uint256",
          "name": "id",
          "type": "uint256"
        },
        {
          "indexed": false,
          "internalType": "string",
          "name": "status",
          "type": "string"
        }
      ],
      "name": "ShipmentUpdated",
      "type": "event"
    },
    {
      "inputs": [],
      "name": "assetCount",
      "outputs": [
        {
          "internalType": "uint256",
          "name": "",
          "type": "uint256"
        }
      ],
      "stateMutability": "view",
      "type": "function",
      "constant": true
    },
    {
      "inputs": [
        {
          "internalType": "uint256",
          "name": "",
          "type": "uint256"
        }
      ],
      "name": "assets",
      "outputs": [
        {
          "internalType": "uint256",
          "name": "id",
          "type": "uint256"
        },
        {
          "internalType": "string",
          "name": "owner",
          "type": "string"
        },
        {
          "internalType": "string",
          "name": "description",
          "type": "string"
        },
        {
          "internalType": "string",
          "name": "serialNumber",
          "type": "string"
        },
        {
          "internalType": "string",
          "name": "image",
          "type": "string"
        },
        {
          "internalType": "string",
          "name": "status",
          "type": "string"
        }
      ],
      "stateMutability": "view",
      "type": "function",
      "constant": true
    },
    {
      "inputs": [],
      "name": "orderCount",
      "outputs": [
        {
          "internalType": "uint256",
          "name": "",
          "type": "uint256"
        }
      ],
      "stateMutability": "view",
      "type": "function",
      "constant": true
    },
    {
      "inputs": [
        {
          "internalType": "uint256",
          "name": "",
          "type": "uint256"
        },
        {
          "internalType": "uint256",
          "name": "",
          "type": "uint256"
        }
      ],
      "name": "orderItems",
      "outputs": [
        {
          "internalType": "uint256",
          "name": "productId",
          "type": "uint256"
        },
        {
          "internalType": "uint256",
          "name": "quantity",
          "type": "uint256"
        }
      ],
      "stateMutability": "view",
      "type": "function",
      "constant": true
    },
    {
      "inputs": [
        {
          "internalType": "uint256",
          "name": "",
          "type": "uint256"
        }
      ],
      "name": "orders",
      "outputs": [
        {
          "internalType": "uint256",
          "name": "id",
          "type": "uint256"
        },
        {
          "internalType": "string",
          "name": "from",
          "type": "string"
        },
        {
          "internalType": "string",
          "name": "to",
          "type": "string"
        },
        {
          "internalType": "uint256",
          "name": "timestamp",
          "type": "uint256"
        },
        {
          "internalType": "string",
          "name": "status",
          "type": "string"
        }
      ],
      "stateMutability": "view",
      "type": "function",
      "constant": true
    },
    {
      "inputs": [],
      "name": "productCount",
      "outputs": [
        {
          "internalType": "uint256",
          "name": "",
          "type": "uint256"
        }
      ],
      "stateMutability": "view",
      "type": "function",
      "constant": true
    },
    {
      "inputs": [
        {
          "internalType": "uint256",
          "name": "",
          "type": "uint256"
        },
        {
          "internalType": "uint256",
          "name": "",
          "type": "uint256"
        }
      ],
      "name": "productMovements",
      "outputs": [
        {
          "internalType": "uint256",
          "name": "timestamp",
          "type": "uint256"
        },
        {
          "internalType": "string",
          "name": "from",
          "type": "string"
        },
        {
          "internalType": "string",
          "name": "to",
          "type": "string"
        },
        {
          "internalType": "string",
          "name": "status",
          "type": "string"
        }
      ],
      "stateMutability": "view",
      "type": "function",
      "constant": true
    },
    {
      "inputs": [
        {
          "internalType": "uint256",
          "name": "",
          "type": "uint256"
        }
      ],
      "name": "products",
      "outputs": [
        {
          "internalType": "uint256",
          "name": "id",
          "type": "uint256"
        },
        {
          "internalType": "string",
          "name": "name",
          "type": "string"
        },
        {
          "internalType": "string",
          "name": "owner",
          "type": "string"
        },
        {
          "internalType": "string",
          "name": "description",
          "type": "string"
        },
        {
          "internalType": "string",
          "name": "image",
          "type": "string"
        }
      ],
      "stateMutability": "view",
      "type": "function",
      "constant": true
    },
    {
      "inputs": [],
      "name": "shipmentCount",
      "outputs": [
        {
          "internalType": "uint256",
          "name": "",
          "type": "uint256"
        }
      ],
      "stateMutability": "view",
      "type": "function",
      "constant": true
    },
    {
      "inputs": [
        {
          "internalType": "uint256",
          "name": "",
          "type": "uint256"
        }
      ],
      "name": "shipments",
      "outputs": [
        {
          "internalType": "uint256",
          "name": "id",
          "type": "uint256"
        },
        {
          "internalType": "string",
          "name": "status",
          "type": "string"
        },
        {
          "internalType": "uint256",
          "name": "timestamp",
          "type": "uint256"
        }
      ],
      "stateMutability": "view",
      "type": "function",
      "constant": true
    },
    {
      "inputs": [
        {
          "internalType": "string",
          "name": "_name",
          "type": "string"
        },
        {
          "internalType": "string",
          "name": "_description",
          "type": "string"
        },
        {
          "internalType": "string",
          "name": "_owner",
          "type": "string"
        },
        {
          "internalType": "string",
          "name": "_image",
          "type": "string"
        }
      ],
      "name": "addProduct",
      "outputs": [],
      "stateMutability": "nonpayable",
      "type": "function"
    },
    {
      "inputs": [
        {
          "internalType": "string",
          "name": "_from",
          "type": "string"
        },
        {
          "internalType": "string",
          "name": "_to",
          "type": "string"
        },
        {
          "internalType": "string",
          "name": "_status",
          "type": "string"
        }
      ],
      "name": "addOrder",
      "outputs": [
        {
          "internalType": "uint256",
          "name": "",
          "type": "uint256"
        }
      ],
      "stateMutability": "nonpayable",
      "type": "function"
    },
    {
      "inputs": [
        {
          "internalType": "uint256",
          "name": "_orderId",
          "type": "uint256"
        },
        {
          "internalType": "uint256[]",
          "name": "_productIds",
          "type": "uint256[]"
        },
        {
          "internalType": "uint256[]",
          "name": "_quantities",
          "type": "uint256[]"
        }
      ],
      "name": "addOrderItems",
      "outputs": [],
      "stateMutability": "nonpayable",
      "type": "function"
    },
    {
      "inputs": [
        {
          "internalType": "uint256",
          "name": "_orderId",
          "type": "uint256"
        }
      ],
      "name": "getOrderItems",
      "outputs": [
        {
          "components": [
            {
              "internalType": "uint256",
              "name": "productId",
              "type": "uint256"
            },
            {
              "internalType": "uint256",
              "name": "quantity",
              "type": "uint256"
            }
          ],
          "internalType": "struct ShipmentTracker.OrderItem[]",
          "name": "",
          "type": "tuple[]"
        }
      ],
      "stateMutability": "view",
      "type": "function",
      "constant": true
    },
    {
      "inputs": [
        {
          "internalType": "uint256",
          "name": "_id",
          "type": "uint256"
        },
        {
          "internalType": "string",
          "name": "_status",
          "type": "string"
        }
      ],
      "name": "updateOrder",
      "outputs": [],
      "stateMutability": "nonpayable",
      "type": "function"
    },
    {
      "inputs": [
        {
          "internalType": "uint256[]",
          "name": "_orderIds",
          "type": "uint256[]"
        },
        {
          "internalType": "string",
          "name": "_status",
          "type": "string"
        }
      ],
      "name": "addShipment",
      "outputs": [],
      "stateMutability": "nonpayable",
      "type": "function"
    },
    {
      "inputs": [
        {
          "internalType": "uint256",
          "name": "_id",
          "type": "uint256"
        },
        {
          "internalType": "string",
          "name": "_status",
          "type": "string"
        }
      ],
      "name": "updateShipment",
      "outputs": [],
      "stateMutability": "nonpayable",
      "type": "function"
    },
    {
      "inputs": [
        {
          "internalType": "string",
          "name": "_owner",
          "type": "string"
        },
        {
          "internalType": "string",
          "name": "_description",
          "type": "string"
        },
        {
          "internalType": "string",
          "name": "_image",
          "type": "string"
        },
        {
          "internalType": "string",
          "name": "_serialNumber",
          "type": "string"
        },
        {
          "internalType": "string",
          "name": "_status",
          "type": "string"
        }
      ],
      "name": "addAsset",
      "outputs": [],
      "stateMutability": "nonpayable",
      "type": "function"
    },
    {
      "inputs": [
        {
          "internalType": "uint256",
          "name": "_id",
          "type": "uint256"
        },
        {
          "internalType": "string",
          "name": "_status",
          "type": "string"
        }
      ],
      "name": "updateAsset",
      "outputs": [],
      "stateMutability": "nonpayable",
      "type": "function"
    },
    {
      "inputs": [
        {
          "internalType": "uint256",
          "name": "_orderId",
          "type": "uint256"
        }
      ],
      "name": "getShipmentsByOrderId",
      "outputs": [
        {
          "components": [
            {
              "internalType": "uint256",
              "name": "id",
              "type": "uint256"
            },
            {
              "internalType": "uint256[]",
              "name": "orderIds",
              "type": "uint256[]"
            },
            {
              "internalType": "string",
              "name": "status",
              "type": "string"
            },
            {
              "internalType": "uint256",
              "name": "timestamp",
              "type": "uint256"
            }
          ],
          "internalType": "struct ShipmentTracker.Shipment[]",
          "name": "",
          "type": "tuple[]"
        }
      ],
      "stateMutability": "view",
      "type": "function",
      "constant": true
    },
    {
      "inputs": [
        {
          "internalType": "uint256",
          "name": "_productId",
          "type": "uint256"
        },
        {
          "internalType": "string",
          "name": "_from",
          "type": "string"
        },
        {
          "internalType": "string",
          "name": "_to",
          "type": "string"
        },
        {
          "internalType": "string",
          "name": "_status",
          "type": "string"
        }
      ],
      "name": "updateProductMovement",
      "outputs": [],
      "stateMutability": "nonpayable",
      "type": "function"
    },
    {
      "inputs": [
        {
          "internalType": "uint256",
          "name": "_productId",
          "type": "uint256"
        }
      ],
      "name": "getProductMovements",
      "outputs": [
        {
          "components": [
            {
              "internalType": "uint256",
              "name": "timestamp",
              "type": "uint256"
            },
            {
              "internalType": "string",
              "name": "from",
              "type": "string"
            },
            {
              "internalType": "string",
              "name": "to",
              "type": "string"
            },
            {
              "internalType": "string",
              "name": "status",
              "type": "string"
            }
          ],
          "internalType": "struct ShipmentTracker.Movement[]",
          "name": "",
          "type": "tuple[]"
        }
      ],
      "stateMutability": "view",
      "type": "function",
      "constant": true
    },
    {
      "inputs": [
        {
          "internalType": "string",
          "name": "_owner",
          "type": "string"
        }
      ],
      "name": "getProductsByOwner",
      "outputs": [
        {
          "components": [
            {
              "internalType": "uint256",
              "name": "id",
              "type": "uint256"
            },
            {
              "internalType": "string",
              "name": "name",
              "type": "string"
            },
            {
              "internalType": "string",
              "name": "owner",
              "type": "string"
            },
            {
              "internalType": "string",
              "name": "description",
              "type": "string"
            },
            {
              "internalType": "string",
              "name": "image",
              "type": "string"
            }
          ],
          "internalType": "struct ShipmentTracker.Product[]",
          "name": "",
          "type": "tuple[]"
        }
      ],
      "stateMutability": "view",
      "type": "function",
      "constant": true
    }
  ],
  "bytecode": "0x608060405234801561001057600080fd5b50613aee806100206000396000f3fe608060405234801561001057600080fd5b506004361061014d5760003560e01c8063acbc1ea7116100c3578063e0f6ef871161007c578063e0f6ef87146103f9578063eafe7a7414610417578063f1876ae714610435578063f424aa7e14610465578063fb13e2eb14610481578063fde74e81146104b15761014d565b8063acbc1ea7146102fb578063c0a721c514610317578063c0fe7e5314610347578063cf35bdd014610363578063dca5153014610398578063df0d449e146103c85761014d565b806345de17ad1161011557806345de17ad146102215780635f22ba3b1461023d5780636e162d56146102595780637acc0b2014610275578063a85c38ef146102a9578063aace20b7146102dd5761014d565b806308414dbd1461015257806314b85b78146101855780632453ffa8146101b55780632ac08a93146101d3578063336e130314610205575b600080fd5b61016c60048036038101906101679190612ae4565b6104cd565b60405161017c9493929190613479565b60405180910390f35b61019f600480360381019061019a919061293d565b6106b2565b6040516101ac919061326e565b60405180910390f35b6101bd6108e4565b6040516101ca9190613396565b60405180910390f35b6101ed60048036038101906101e8919061293d565b6108ea565b6040516101fc9392919061362e565b60405180910390f35b61021f600480360381019061021a9190612966565b61099c565b005b61023b600480360381019061023691906129e5565b610bf8565b005b610257600480360381019061025291906129e5565b610cb7565b005b610273600480360381019061026e91906129e5565b610d76565b005b61028f600480360381019061028a919061293d565b610e35565b6040516102a09594939291906134d3565b60405180910390f35b6102c360048036038101906102be919061293d565b61108b565b6040516102d49594939291906135c6565b60405180910390f35b6102e5611259565b6040516102f29190613396565b60405180910390f35b61031560048036038101906103109190612647565b61125f565b005b610331600480360381019061032c91906126f4565b611343565b60405161033e9190613396565b60405180910390f35b610361600480360381019061035c919061284e565b611456565b005b61037d6004803603810190610378919061293d565b611596565b60405161038f96959493929190613542565b60405180910390f35b6103b260048036038101906103ad919061293d565b61187a565b6040516103bf91906132d4565b60405180910390f35b6103e260048036038101906103dd9190612ae4565b611c05565b6040516103f092919061366c565b60405180910390f35b610401611c46565b60405161040e9190613396565b60405180910390f35b61041f611c4c565b60405161042c9190613396565b60405180910390f35b61044f600480360381019061044a91906126b3565b611c52565b60405161045c91906132b2565b60405180910390f35b61047f600480360381019061047a9190612a39565b6120c8565b005b61049b6004803603810190610496919061293d565b61224e565b6040516104a89190613290565b60405180910390f35b6104cb60048036038101906104c6919061278b565b6122d4565b005b600560205281600052604060002081815481106104e957600080fd5b90600052602060002090600402016000915091505080600001549080600101805461051390613988565b80601f016020809104026020016040519081016040528092919081815260200182805461053f90613988565b801561058c5780601f106105615761010080835404028352916020019161058c565b820191906000526020600020905b81548152906001019060200180831161056f57829003601f168201915b5050505050908060020180546105a190613988565b80601f01602080910402602001604051908101604052809291908181526020018280546105cd90613988565b801561061a5780601f106105ef5761010080835404028352916020019161061a565b820191906000526020600020905b8154815290600101906020018083116105fd57829003601f168201915b50505050509080600301805461062f90613988565b80601f016020809104026020016040519081016040528092919081815260200182805461065b90613988565b80156106a85780601f1061067d576101008083540402835291602001916106a8565b820191906000526020600020905b81548152906001019060200180831161068b57829003601f168201915b5050505050905084565b606060056000838152602001908152602001600020805480602002602001604051908101604052809291908181526020016000905b828210156108d957838290600052602060002090600402016040518060800160405290816000820154815260200160018201805461072490613988565b80601f016020809104026020016040519081016040528092919081815260200182805461075090613988565b801561079d5780601f106107725761010080835404028352916020019161079d565b820191906000526020600020905b81548152906001019060200180831161078057829003601f168201915b505050505081526020016002820180546107b690613988565b80601f01602080910402602001604051908101604052809291908181526020018280546107e290613988565b801561082f5780601f106108045761010080835404028352916020019161082f565b820191906000526020600020905b81548152906001019060200180831161081257829003601f168201915b5050505050815260200160038201805461084890613988565b80601f016020809104026020016040519081016040528092919081815260200182805461087490613988565b80156108c15780601f10610896576101008083540402835291602001916108c1565b820191906000526020600020905b8154815290600101906020018083116108a457829003601f168201915b505050505081525050815260200190600101906106e7565b505050509050919050565b60075481565b600260205280600052604060002060009150905080600001549080600201805461091390613988565b80601f016020809104026020016040519081016040528092919081815260200182805461093f90613988565b801561098c5780601f106109615761010080835404028352916020019161098c565b820191906000526020600020905b81548152906001019060200180831161096f57829003601f168201915b5050505050908060030154905083565b6000831180156109ae57506007548311155b6109ed576040517f08c379a00000000000000000000000000000000000000000000000000000000081526004016109e490613376565b60405180910390fd5b8051825114610a31576040517f08c379a0000000000000000000000000000000000000000000000000000000008152600401610a2890613336565b60405180910390fd5b60005b8251811015610bf257600460008581526020019081526020016000206040518060400160405280858481518110610a94577f4e487b7100000000000000000000000000000000000000000000000000000000600052603260045260246000fd5b60200260200101518152602001848481518110610ada577f4e487b7100000000000000000000000000000000000000000000000000000000600052603260045260246000fd5b60200260200101518152509080600181540180825580915050600190039060005260206000209060020201600090919091909150600082015181600001556020820151816001015550507f8a1280fca4a230513637a971f1744d0fac074bb2cf3742f1fa0b07251651e0ad84848381518110610b7f577f4e487b7100000000000000000000000000000000000000000000000000000000600052603260045260246000fd5b6020026020010151848481518110610bc0577f4e487b7100000000000000000000000000000000000000000000000000000000600052603260045260246000fd5b6020026020010151604051610bd7939291906136fd565b60405180910390a18080610bea906139ba565b915050610a34565b50505050565b600082118015610c0a57506009548211155b610c49576040517f08c379a0000000000000000000000000000000000000000000000000000000008152600401610c40906132f6565b60405180910390fd5b600060036000848152602001908152602001600020905081816005019080519060200190610c789291906123ed565b507f2b074ebb8b6c969857be5e8f5584430b0b690e52b3df589502d3274a8555e92c8383604051610caa929190613404565b60405180910390a1505050565b600082118015610cc957506008548211155b610d08576040517f08c379a0000000000000000000000000000000000000000000000000000000008152600401610cff90613316565b60405180910390fd5b600060026000848152602001908152602001600020905081816002019080519060200190610d379291906123ed565b507fa45453e024ca6cdd48d1b0ea108bdf9752adf4d4ae61336d9852a5a9116b4fe08383604051610d69929190613404565b60405180910390a1505050565b600082118015610d8857506007548211155b610dc7576040517f08c379a0000000000000000000000000000000000000000000000000000000008152600401610dbe90613376565b60405180910390fd5b600060016000848152602001908152602001600020905081816004019080519060200190610df69291906123ed565b507f96fa16897ea031fbe303a21443875b84c1d41f189bd5936a19d9b6dd7c813edf8383604051610e28929190613404565b60405180910390a1505050565b6000602052806000526040600020600091509050806000015490806001018054610e5e90613988565b80601f0160208091040260200160405190810160405280929190818152602001828054610e8a90613988565b8015610ed75780601f10610eac57610100808354040283529160200191610ed7565b820191906000526020600020905b815481529060010190602001808311610eba57829003601f168201915b505050505090806002018054610eec90613988565b80601f0160208091040260200160405190810160405280929190818152602001828054610f1890613988565b8015610f655780601f10610f3a57610100808354040283529160200191610f65565b820191906000526020600020905b815481529060010190602001808311610f4857829003601f168201915b505050505090806003018054610f7a90613988565b80601f0160208091040260200160405190810160405280929190818152602001828054610fa690613988565b8015610ff35780601f10610fc857610100808354040283529160200191610ff3565b820191906000526020600020905b815481529060010190602001808311610fd657829003601f168201915b50505050509080600401805461100890613988565b80601f016020809104026020016040519081016040528092919081815260200182805461103490613988565b80156110815780601f1061105657610100808354040283529160200191611081565b820191906000526020600020905b81548152906001019060200180831161106457829003601f168201915b5050505050905085565b60016020528060005260406000206000915090508060000154908060010180546110b490613988565b80601f01602080910402602001604051908101604052809291908181526020018280546110e090613988565b801561112d5780601f106111025761010080835404028352916020019161112d565b820191906000526020600020905b81548152906001019060200180831161111057829003601f168201915b50505050509080600201805461114290613988565b80601f016020809104026020016040519081016040528092919081815260200182805461116e90613988565b80156111bb5780601f10611190576101008083540402835291602001916111bb565b820191906000526020600020905b81548152906001019060200180831161119e57829003601f168201915b5050505050908060030154908060040180546111d690613988565b80601f016020809104026020016040519081016040528092919081815260200182805461120290613988565b801561124f5780601f106112245761010080835404028352916020019161124f565b820191906000526020600020905b81548152906001019060200180831161123257829003601f168201915b5050505050905085565b60085481565b60086000815480929190611272906139ba565b919050555060405180608001604052806008548152602001838152602001828152602001428152506002600060085481526020019081526020016000206000820151816000015560208201518160010190805190602001906112d5929190612473565b5060408201518160020190805190602001906112f29291906123ed565b50606082015181600301559050507f9626e448c17400e6a009c4e65e4a69006a776ebb653084ee28f56b4e1c664d3660085483834260405161133794939291906133b1565b60405180910390a15050565b600060076000815480929190611358906139ba565b91905055506040518060a001604052806007548152602001858152602001848152602001428152602001838152506001600060075481526020019081526020016000206000820151816000015560208201518160010190805190602001906113c19291906123ed565b5060408201518160020190805190602001906113de9291906123ed565b506060820151816003015560808201518160040190805190602001906114059291906123ed565b509050507f119edd8731ae04c45d138f1a13c2f0dc88c960e428d7697497bd4b6a2bef6b83600754858542866040516114429594939291906135c6565b60405180910390a160075490509392505050565b60096000815480929190611469906139ba565b91905055506040518060c001604052806009548152602001868152602001858152602001838152602001848152602001828152506003600060095481526020019081526020016000206000820151816000015560208201518160010190805190602001906114d89291906123ed565b5060408201518160020190805190602001906114f59291906123ed565b5060608201518160030190805190602001906115129291906123ed565b50608082015181600401908051906020019061152f9291906123ed565b5060a082015181600501908051906020019061154c9291906123ed565b509050507f5c7ba178b0d8d98333cb487f179b40611daf375b3981ffe69b7850a099db91236009548686846040516115879493929190613479565b60405180910390a15050505050565b60036020528060005260406000206000915090508060000154908060010180546115bf90613988565b80601f01602080910402602001604051908101604052809291908181526020018280546115eb90613988565b80156116385780601f1061160d57610100808354040283529160200191611638565b820191906000526020600020905b81548152906001019060200180831161161b57829003601f168201915b50505050509080600201805461164d90613988565b80601f016020809104026020016040519081016040528092919081815260200182805461167990613988565b80156116c65780601f1061169b576101008083540402835291602001916116c6565b820191906000526020600020905b8154815290600101906020018083116116a957829003601f168201915b5050505050908060030180546116db90613988565b80601f016020809104026020016040519081016040528092919081815260200182805461170790613988565b80156117545780601f1061172957610100808354040283529160200191611754565b820191906000526020600020905b81548152906001019060200180831161173757829003601f168201915b50505050509080600401805461176990613988565b80601f016020809104026020016040519081016040528092919081815260200182805461179590613988565b80156117e25780601f106117b7576101008083540402835291602001916117e2565b820191906000526020600020905b8154815290600101906020018083116117c557829003601f168201915b5050505050908060050180546117f790613988565b80601f016020809104026020016040519081016040528092919081815260200182805461182390613988565b80156118705780601f1061184557610100808354040283529160200191611870565b820191906000526020600020905b81548152906001019060200180831161185357829003601f168201915b5050505050905086565b6060600080600190505b600854811161194b5760005b60026000838152602001908152602001600020600101805490508110156119375784600260008481526020019081526020016000206001018281548110611900577f4e487b7100000000000000000000000000000000000000000000000000000000600052603260045260246000fd5b9060005260206000200154141561192457828061191c906139ba565b935050611937565b808061192f906139ba565b915050611890565b508080611943906139ba565b915050611884565b5060008167ffffffffffffffff81111561198e577f4e487b7100000000000000000000000000000000000000000000000000000000600052604160045260246000fd5b6040519080825280602002602001820160405280156119c757816020015b6119b46124c0565b8152602001906001900390816119ac5790505b509050600080600190505b6008548111611bf95760005b6002600083815260200190815260200160002060010180549050811015611be55786600260008481526020019081526020016000206001018281548110611a4e577f4e487b7100000000000000000000000000000000000000000000000000000000600052603260045260246000fd5b90600052602060002001541415611bd257600260008381526020019081526020016000206040518060800160405290816000820154815260200160018201805480602002602001604051908101604052809291908181526020018280548015611ad657602002820191906000526020600020905b815481526020019060010190808311611ac2575b50505050508152602001600282018054611aef90613988565b80601f0160208091040260200160405190810160405280929190818152602001828054611b1b90613988565b8015611b685780601f10611b3d57610100808354040283529160200191611b68565b820191906000526020600020905b815481529060010190602001808311611b4b57829003601f168201915b50505050508152602001600382015481525050848481518110611bb4577f4e487b7100000000000000000000000000000000000000000000000000000000600052603260045260246000fd5b60200260200101819052508280611bca906139ba565b935050611be5565b8080611bdd906139ba565b9150506119de565b508080611bf1906139ba565b9150506119d2565b50819350505050919050565b60046020528160005260406000208181548110611c2157600080fd5b9060005260206000209060020201600091509150508060000154908060010154905082565b60065481565b60095481565b6060600080600190505b6006548111611cef5783604051602001611c769190613240565b60405160208183030381529060405280519060200120600080838152602001908152602001600020600201604051602001611cb19190613257565b604051602081830303815290604052805190602001201415611cdc578180611cd8906139ba565b9250505b8080611ce7906139ba565b915050611c5c565b5060008167ffffffffffffffff811115611d32577f4e487b7100000000000000000000000000000000000000000000000000000000600052604160045260246000fd5b604051908082528060200260200182016040528015611d6b57816020015b611d586124e8565b815260200190600190039081611d505790505b509050600080600190505b60065481116120bc5785604051602001611d909190613240565b60405160208183030381529060405280519060200120600080838152602001908152602001600020600201604051602001611dcb9190613257565b6040516020818303038152906040528051906020012014156120a9576000808281526020019081526020016000206040518060a001604052908160008201548152602001600182018054611e1e90613988565b80601f0160208091040260200160405190810160405280929190818152602001828054611e4a90613988565b8015611e975780601f10611e6c57610100808354040283529160200191611e97565b820191906000526020600020905b815481529060010190602001808311611e7a57829003601f168201915b50505050508152602001600282018054611eb090613988565b80601f0160208091040260200160405190810160405280929190818152602001828054611edc90613988565b8015611f295780601f10611efe57610100808354040283529160200191611f29565b820191906000526020600020905b815481529060010190602001808311611f0c57829003601f168201915b50505050508152602001600382018054611f4290613988565b80601f0160208091040260200160405190810160405280929190818152602001828054611f6e90613988565b8015611fbb5780601f10611f9057610100808354040283529160200191611fbb565b820191906000526020600020905b815481529060010190602001808311611f9e57829003601f168201915b50505050508152602001600482018054611fd490613988565b80601f016020809104026020016040519081016040528092919081815260200182805461200090613988565b801561204d5780601f106120225761010080835404028352916020019161204d565b820191906000526020600020905b81548152906001019060200180831161203057829003601f168201915b50505050508152505083838151811061208f577f4e487b7100000000000000000000000000000000000000000000000000000000600052603260045260246000fd5b602002602001018190525081806120a5906139ba565b9250505b80806120b4906139ba565b915050611d76565b50819350505050919050565b6000841180156120da57506006548411155b612119576040517f08c379a000000000000000000000000000000000000000000000000000000000815260040161211090613356565b60405180910390fd5b60008060008681526020019081526020016000209050828160020190805190602001906121479291906123ed565b506005600086815260200190815260200160002060405180608001604052804281526020018681526020018581526020018481525090806001815401808255809150506001900390600052602060002090600402016000909190919091506000820151816000015560208201518160010190805190602001906121cb9291906123ed565b5060408201518160020190805190602001906121e89291906123ed565b5060608201518160030190805190602001906122059291906123ed565b5050507f9b9234659c2a9ed56ecb308c17ce6aaa8a19a4306b755ea0b5bbe44c7e717340854286868660405161223f959493929190613695565b60405180910390a15050505050565b606060046000838152602001908152602001600020805480602002602001604051908101604052809291908181526020016000905b828210156122c957838290600052602060002090600202016040518060400160405290816000820154815260200160018201548152505081526020019060010190612283565b505050509050919050565b600660008154809291906122e7906139ba565b91905055506040518060a00160405280600654815260200185815260200183815260200184815260200182815250600080600654815260200190815260200160002060008201518160000155602082015181600101908051906020019061234f9291906123ed565b50604082015181600201908051906020019061236c9291906123ed565b5060608201518160030190805190602001906123899291906123ed565b5060808201518160040190805190602001906123a69291906123ed565b509050507fb0b1b5b61bc0dbb800dfdecd756ac304fe33d3a63c2ac5dc419452555c99a82960065485856040516123df93929190613434565b60405180910390a150505050565b8280546123f990613988565b90600052602060002090601f01602090048101928261241b5760008555612462565b82601f1061243457805160ff1916838001178555612462565b82800160010185558215612462579182015b82811115612461578251825591602001919060010190612446565b5b50905061246f9190612517565b5090565b8280548282559060005260206000209081019282156124af579160200282015b828111156124ae578251825591602001919060010190612493565b5b5090506124bc9190612517565b5090565b6040518060800160405280600081526020016060815260200160608152602001600081525090565b6040518060a0016040528060008152602001606081526020016060815260200160608152602001606081525090565b5b80821115612530576000816000905550600101612518565b5090565b600061254761254284613765565b613734565b9050808382526020820190508285602086028201111561256657600080fd5b60005b85811015612596578161257c8882612632565b845260208401935060208301925050600181019050612569565b5050509392505050565b60006125b36125ae84613791565b613734565b9050828152602081018484840111156125cb57600080fd5b6125d6848285613946565b509392505050565b600082601f8301126125ef57600080fd5b81356125ff848260208601612534565b91505092915050565b600082601f83011261261957600080fd5b81356126298482602086016125a0565b91505092915050565b60008135905061264181613aa1565b92915050565b6000806040838503121561265a57600080fd5b600083013567ffffffffffffffff81111561267457600080fd5b612680858286016125de565b925050602083013567ffffffffffffffff81111561269d57600080fd5b6126a985828601612608565b9150509250929050565b6000602082840312156126c557600080fd5b600082013567ffffffffffffffff8111156126df57600080fd5b6126eb84828501612608565b91505092915050565b60008060006060848603121561270957600080fd5b600084013567ffffffffffffffff81111561272357600080fd5b61272f86828701612608565b935050602084013567ffffffffffffffff81111561274c57600080fd5b61275886828701612608565b925050604084013567ffffffffffffffff81111561277557600080fd5b61278186828701612608565b9150509250925092565b600080600080608085870312156127a157600080fd5b600085013567ffffffffffffffff8111156127bb57600080fd5b6127c787828801612608565b945050602085013567ffffffffffffffff8111156127e457600080fd5b6127f087828801612608565b935050604085013567ffffffffffffffff81111561280d57600080fd5b61281987828801612608565b925050606085013567ffffffffffffffff81111561283657600080fd5b61284287828801612608565b91505092959194509250565b600080600080600060a0868803121561286657600080fd5b600086013567ffffffffffffffff81111561288057600080fd5b61288c88828901612608565b955050602086013567ffffffffffffffff8111156128a957600080fd5b6128b588828901612608565b945050604086013567ffffffffffffffff8111156128d257600080fd5b6128de88828901612608565b935050606086013567ffffffffffffffff8111156128fb57600080fd5b61290788828901612608565b925050608086013567ffffffffffffffff81111561292457600080fd5b61293088828901612608565b9150509295509295909350565b60006020828403121561294f57600080fd5b600061295d84828501612632565b91505092915050565b60008060006060848603121561297b57600080fd5b600061298986828701612632565b935050602084013567ffffffffffffffff8111156129a657600080fd5b6129b2868287016125de565b925050604084013567ffffffffffffffff8111156129cf57600080fd5b6129db868287016125de565b9150509250925092565b600080604083850312156129f857600080fd5b6000612a0685828601612632565b925050602083013567ffffffffffffffff811115612a2357600080fd5b612a2f85828601612608565b9150509250929050565b60008060008060808587031215612a4f57600080fd5b6000612a5d87828801612632565b945050602085013567ffffffffffffffff811115612a7a57600080fd5b612a8687828801612608565b935050604085013567ffffffffffffffff811115612aa357600080fd5b612aaf87828801612608565b925050606085013567ffffffffffffffff811115612acc57600080fd5b612ad887828801612608565b91505092959194509250565b60008060408385031215612af757600080fd5b6000612b0585828601612632565b9250506020612b1685828601612632565b9150509250929050565b6000612b2c838361308d565b905092915050565b6000612b4083836130fe565b60408301905092915050565b6000612b58838361312d565b905092915050565b6000612b6c83836131b8565b905092915050565b6000612b808383613222565b60208301905092915050565b6000612b9782613826565b612ba181856138a9565b935083602082028501612bb3856137c1565b8060005b85811015612bef5784840389528151612bd08582612b20565b9450612bdb83613868565b925060208a01995050600181019050612bb7565b50829750879550505050505092915050565b6000612c0c82613831565b612c1681856138ba565b9350612c21836137d1565b8060005b83811015612c52578151612c398882612b34565b9750612c4483613875565b925050600181019050612c25565b5085935050505092915050565b6000612c6a8261383c565b612c7481856138cb565b935083602082028501612c86856137e1565b8060005b85811015612cc25784840389528151612ca38582612b4c565b9450612cae83613882565b925060208a01995050600181019050612c8a565b50829750879550505050505092915050565b6000612cdf82613847565b612ce981856138dc565b935083602082028501612cfb856137f1565b8060005b85811015612d375784840389528151612d188582612b60565b9450612d238361388f565b925060208a01995050600181019050612cff565b50829750879550505050505092915050565b6000612d5482613852565b612d5e81856138ed565b9350612d6983613801565b8060005b83811015612d9a578151612d818882612b74565b9750612d8c8361389c565b925050600181019050612d6d565b5085935050505092915050565b6000612db282613852565b612dbc81856138fe565b9350612dc783613801565b8060005b83811015612df8578151612ddf8882612b74565b9750612dea8361389c565b925050600181019050612dcb565b5085935050505092915050565b6000612e108261385d565b612e1a818561390f565b9350612e2a818560208601613955565b612e3381613a90565b840191505092915050565b6000612e498261385d565b612e538185613920565b9350612e63818560208601613955565b612e6c81613a90565b840191505092915050565b6000612e828261385d565b612e8c8185613931565b9350612e9c818560208601613955565b80840191505092915050565b60008154612eb581613988565b612ebf8186613931565b94506001821660008114612eda5760018114612eeb57612f1e565b60ff19831686528186019350612f1e565b612ef485613811565b60005b83811015612f1657815481890152600182019150602081019050612ef7565b838801955050505b50505092915050565b6000612f34601383613920565b91507f417373657420494420697320696e76616c6964000000000000000000000000006000830152602082019050919050565b6000612f74601683613920565b91507f536869706d656e7420494420697320696e76616c6964000000000000000000006000830152602082019050919050565b6000612fb4602583613920565b91507f50726f647563742049447320616e64207175616e746974696573206d7573742060008301527f6d617463680000000000000000000000000000000000000000000000000000006020830152604082019050919050565b600061301a601583613920565b91507f50726f6475637420494420697320696e76616c696400000000000000000000006000830152602082019050919050565b600061305a601383613920565b91507f4f7264657220494420697320696e76616c6964000000000000000000000000006000830152602082019050919050565b60006080830160008301516130a56000860182613222565b50602083015184820360208601526130bd8282612e05565b915050604083015184820360408601526130d78282612e05565b915050606083015184820360608601526130f18282612e05565b9150508091505092915050565b6040820160008201516131146000850182613222565b5060208201516131276020850182613222565b50505050565b600060a0830160008301516131456000860182613222565b506020830151848203602086015261315d8282612e05565b915050604083015184820360408601526131778282612e05565b915050606083015184820360608601526131918282612e05565b915050608083015184820360808601526131ab8282612e05565b9150508091505092915050565b60006080830160008301516131d06000860182613222565b50602083015184820360208601526131e88282612d49565b915050604083015184820360408601526132028282612e05565b91505060608301516132176060860182613222565b508091505092915050565b61322b8161393c565b82525050565b61323a8161393c565b82525050565b600061324c8284612e77565b915081905092915050565b60006132638284612ea8565b915081905092915050565b600060208201905081810360008301526132888184612b8c565b905092915050565b600060208201905081810360008301526132aa8184612c01565b905092915050565b600060208201905081810360008301526132cc8184612c5f565b905092915050565b600060208201905081810360008301526132ee8184612cd4565b905092915050565b6000602082019050818103600083015261330f81612f27565b9050919050565b6000602082019050818103600083015261332f81612f67565b9050919050565b6000602082019050818103600083015261334f81612fa7565b9050919050565b6000602082019050818103600083015261336f8161300d565b9050919050565b6000602082019050818103600083015261338f8161304d565b9050919050565b60006020820190506133ab6000830184613231565b92915050565b60006080820190506133c66000830187613231565b81810360208301526133d88186612da7565b905081810360408301526133ec8185612e3e565b90506133fb6060830184613231565b95945050505050565b60006040820190506134196000830185613231565b818103602083015261342b8184612e3e565b90509392505050565b60006060820190506134496000830186613231565b818103602083015261345b8185612e3e565b9050818103604083015261346f8184612e3e565b9050949350505050565b600060808201905061348e6000830187613231565b81810360208301526134a08186612e3e565b905081810360408301526134b48185612e3e565b905081810360608301526134c88184612e3e565b905095945050505050565b600060a0820190506134e86000830188613231565b81810360208301526134fa8187612e3e565b9050818103604083015261350e8186612e3e565b905081810360608301526135228185612e3e565b905081810360808301526135368184612e3e565b90509695505050505050565b600060c0820190506135576000830189613231565b81810360208301526135698188612e3e565b9050818103604083015261357d8187612e3e565b905081810360608301526135918186612e3e565b905081810360808301526135a58185612e3e565b905081810360a08301526135b98184612e3e565b9050979650505050505050565b600060a0820190506135db6000830188613231565b81810360208301526135ed8187612e3e565b905081810360408301526136018186612e3e565b90506136106060830185613231565b81810360808301526136228184612e3e565b90509695505050505050565b60006060820190506136436000830186613231565b81810360208301526136558185612e3e565b90506136646040830184613231565b949350505050565b60006040820190506136816000830185613231565b61368e6020830184613231565b9392505050565b600060a0820190506136aa6000830188613231565b6136b76020830187613231565b81810360408301526136c98186612e3e565b905081810360608301526136dd8185612e3e565b905081810360808301526136f18184612e3e565b90509695505050505050565b60006060820190506137126000830186613231565b61371f6020830185613231565b61372c6040830184613231565b949350505050565b6000604051905081810181811067ffffffffffffffff8211171561375b5761375a613a61565b5b8060405250919050565b600067ffffffffffffffff8211156137805761377f613a61565b5b602082029050602081019050919050565b600067ffffffffffffffff8211156137ac576137ab613a61565b5b601f19601f8301169050602081019050919050565b6000819050602082019050919050565b6000819050602082019050919050565b6000819050602082019050919050565b6000819050602082019050919050565b6000819050602082019050919050565b60008190508160005260206000209050919050565b600081519050919050565b600081519050919050565b600081519050919050565b600081519050919050565b600081519050919050565b600081519050919050565b6000602082019050919050565b6000602082019050919050565b6000602082019050919050565b6000602082019050919050565b6000602082019050919050565b600082825260208201905092915050565b600082825260208201905092915050565b600082825260208201905092915050565b600082825260208201905092915050565b600082825260208201905092915050565b600082825260208201905092915050565b600082825260208201905092915050565b600082825260208201905092915050565b600081905092915050565b6000819050919050565b82818337600083830152505050565b60005b83811015613973578082015181840152602081019050613958565b83811115613982576000848401525b50505050565b600060028204905060018216806139a057607f821691505b602082108114156139b4576139b3613a32565b5b50919050565b60006139c58261393c565b91507fffffffffffffffffffffffffffffffffffffffffffffffffffffffffffffffff8214156139f8576139f7613a03565b5b600182019050919050565b7f4e487b7100000000000000000000000000000000000000000000000000000000600052601160045260246000fd5b7f4e487b7100000000000000000000000000000000000000000000000000000000600052602260045260246000fd5b7f4e487b7100000000000000000000000000000000000000000000000000000000600052604160045260246000fd5b6000601f19601f8301169050919050565b613aaa8161393c565b8114613ab557600080fd5b5056fea2646970667358221220b1dd1d94eb8fec4162d8eb8396dc30f5b35c367dd2bed9e6a0bdee7fb0d89f6d64736f6c63430008000033",
  "immutableReferences": {},
  "source": "// SPDX-License-Identifier: MIT\r\npragma solidity ^0.8.0;\r\n\r\ncontract ShipmentTracker {\r\n    // Struct to store product information\r\n    struct Product {\r\n        uint id;\r\n        string name;\r\n        string owner;\r\n        string description;\r\n        string image;\r\n    }\r\n\r\n    // Struct to store order item information\r\n    struct OrderItem {\r\n        uint productId;\r\n        uint quantity;\r\n    }\r\n\r\n    // Struct to store order information\r\n    struct Order {\r\n        uint id;\r\n        string from;\r\n        string to;\r\n        uint256 timestamp;\r\n        string status;\r\n    }\r\n\r\n    // Struct to store shipment information\r\n    struct Shipment {\r\n        uint id;\r\n        uint[] orderIds;\r\n        string status;\r\n        uint256 timestamp;\r\n    }\r\n\r\n    // Struct to store asset information\r\n    struct Asset {\r\n        uint id;\r\n        string owner;\r\n        string description;\r\n        string serialNumber;\r\n        string image;\r\n        string status;\r\n    }\r\n\r\n    // Struct to store movement history information\r\n    struct Movement {\r\n        uint timestamp;\r\n        string from;\r\n        string to;\r\n        string status;\r\n    }\r\n\r\n    // Mappings to store products, orders, shipments, and assets\r\n    mapping(uint => Product) public products;\r\n    mapping(uint => Order) public orders;\r\n    mapping(uint => Shipment) public shipments;\r\n    mapping(uint => Asset) public assets;\r\n    mapping(uint => OrderItem[]) public orderItems; // Mapping for storing order items\r\n    mapping(uint => Movement[]) public productMovements; // Mapping for storing product movements\r\n\r\n    // Counters to keep track of the number of products, orders, shipments, and assets\r\n    uint public productCount;\r\n    uint public orderCount;\r\n    uint public shipmentCount;\r\n    uint public assetCount;\r\n\r\n    // Events to be emitted when a product, order, shipment, or asset is added or updated\r\n    event ProductAdded(uint id, string name, string description);\r\n    event OrderAdded(uint id, string from, string to, uint256 timestamp, string status);\r\n    event OrderUpdated(uint id, string status);\r\n    event OrderItemAdded(uint orderId, uint productId, uint quantity);\r\n    event ShipmentAdded(uint id, uint[] orderIds, string status, uint256 timestamp);\r\n    event ShipmentUpdated(uint id, string status);\r\n    event AssetAdded(uint id, string owner, string description, string status);\r\n    event AssetUpdated(uint id, string status);\r\n    event ProductMovementUpdated(uint productId, uint timestamp, string from, string to, string status);\r\n\r\n    // Function to add a new product\r\n    function addProduct(string memory _name, string memory _description, string memory _owner, string memory _image) public {\r\n        productCount++;\r\n        products[productCount] = Product(productCount, _name, _owner, _description, _image);\r\n        emit ProductAdded(productCount, _name, _description);\r\n    }\r\n\r\n    // Function to add a new order\r\n    function addOrder(string memory _from, string memory _to, string memory _status) public returns (uint) {\r\n        orderCount++;\r\n        orders[orderCount] = Order(orderCount, _from, _to, block.timestamp, _status);\r\n        emit OrderAdded(orderCount, _from, _to, block.timestamp, _status);\r\n        return orderCount;\r\n    }\r\n\r\n    // Function to add order items to an existing order\r\n    function addOrderItems(uint _orderId, uint[] memory _productIds, uint[] memory _quantities) public {\r\n        require(_orderId > 0 && _orderId <= orderCount, \"Order ID is invalid\");\r\n        require(_productIds.length == _quantities.length, \"Product IDs and quantities must match\");\r\n\r\n        // Adding items to the order\r\n        for (uint i = 0; i < _productIds.length; i++) {\r\n            orderItems[_orderId].push(OrderItem(_productIds[i], _quantities[i]));\r\n            emit OrderItemAdded(_orderId, _productIds[i], _quantities[i]);\r\n        }\r\n    }\r\n\r\n    // Function to get order items for a specific order\r\n    function getOrderItems(uint _orderId) public view returns (OrderItem[] memory) {\r\n        return orderItems[_orderId];\r\n    }\r\n\r\n    // Function to update the status of an order\r\n    function updateOrder(uint _id, string memory _status) public {\r\n        require(_id > 0 && _id <= orderCount, \"Order ID is invalid\");\r\n        Order storage order = orders[_id];\r\n        order.status = _status;\r\n        emit OrderUpdated(_id, _status);\r\n    }\r\n\r\n    // Function to add a new shipment\r\n    function addShipment(uint[] memory _orderIds, string memory _status) public {\r\n        shipmentCount++;\r\n        shipments[shipmentCount] = Shipment(shipmentCount, _orderIds, _status, block.timestamp);\r\n        emit ShipmentAdded(shipmentCount, _orderIds, _status, block.timestamp);\r\n    }\r\n\r\n    // Function to update the status of a shipment\r\n    function updateShipment(uint _id, string memory _status) public {\r\n        require(_id > 0 && _id <= shipmentCount, \"Shipment ID is invalid\");\r\n        Shipment storage shipment = shipments[_id];\r\n        shipment.status = _status;\r\n        emit ShipmentUpdated(_id, _status);\r\n    }\r\n\r\n    // Function to add a new asset\r\n    function addAsset(string memory _owner, string memory _description, string memory _image, string memory _serialNumber, string memory _status) public {\r\n        assetCount++;\r\n        assets[assetCount] = Asset(assetCount, _owner, _description, _serialNumber, _image, _status);\r\n        emit AssetAdded(assetCount, _owner, _description, _status);\r\n    }\r\n\r\n    // Function to update the status of an asset\r\n    function updateAsset(uint _id, string memory _status) public {\r\n        require(_id > 0 && _id <= assetCount, \"Asset ID is invalid\");\r\n        Asset storage asset = assets[_id];\r\n        asset.status = _status;\r\n        emit AssetUpdated(_id, _status);\r\n    }\r\n\r\n    // Function to get shipments by order ID\r\n    function getShipmentsByOrderId(uint _orderId) public view returns (Shipment[] memory) {\r\n        uint shipmentCountForOrder;\r\n        for (uint i = 1; i <= shipmentCount; i++) {\r\n            for (uint j = 0; j < shipments[i].orderIds.length; j++) {\r\n                if (shipments[i].orderIds[j] == _orderId) {\r\n                    shipmentCountForOrder++;\r\n                    break;\r\n                }\r\n            }\r\n        }\r\n\r\n        Shipment[] memory result = new Shipment[](shipmentCountForOrder);\r\n        uint counter = 0;\r\n        for (uint i = 1; i <= shipmentCount; i++) {\r\n            for (uint j = 0; j < shipments[i].orderIds.length; j++) {\r\n                if (shipments[i].orderIds[j] == _orderId) {\r\n                    result[counter] = shipments[i];\r\n                    counter++;\r\n                    break;\r\n                }\r\n            }\r\n        }\r\n        return result;\r\n    }\r\n\r\n    // Function to update product ownership and status\r\n    function updateProductMovement(uint _productId, string memory _from, string memory _to, string memory _status) public {\r\n        require(_productId > 0 && _productId <= productCount, \"Product ID is invalid\");\r\n        Product storage product = products[_productId];\r\n        product.owner = _to;\r\n\r\n        productMovements[_productId].push(Movement(block.timestamp, _from, _to, _status));\r\n        emit ProductMovementUpdated(_productId, block.timestamp, _from, _to, _status);\r\n    }\r\n\r\n    // Function to get the movement history of a product\r\n    function getProductMovements(uint _productId) public view returns (Movement[] memory) {\r\n        return productMovements[_productId];\r\n    }\r\n\r\n    // Function to get all products by owner\r\n    function getProductsByOwner(string memory _owner) public view returns (Product[] memory) {\r\n        uint ownerProductCount = 0;\r\n        for (uint i = 1; i <= productCount; i++) {\r\n            if (keccak256(abi.encodePacked(products[i].owner)) == keccak256(abi.encodePacked(_owner))) {\r\n                ownerProductCount++;\r\n            }\r\n        }\r\n\r\n        Product[] memory result = new Product[](ownerProductCount);\r\n        uint counter = 0;\r\n        for (uint i = 1; i <= productCount; i++) {\r\n            if (keccak256(abi.encodePacked(products[i].owner)) == keccak256(abi.encodePacked(_owner))) {\r\n                result[counter] = products[i];\r\n                counter++;\r\n            }\r\n        }\r\n        return result;\r\n    }\r\n}\r\n",
  "sourcePath": "C:\\Users\\franc\\Desktop\\FinityEdge Projects\\scm-app\\supplychain\\blockchain\\contracts\\ShipmentTracker.sol",
  "compiler": {
    "name": "solc",
    "version": "0.8.0+commit.c7dfd78e.Emscripten.clang"
  },
  "schemaVersion": "3.4.16",
  "updatedAt": "2024-07-23T22:02:29.333Z",
  "networkType": "ethereum",
  "devdoc": {
    "kind": "dev",
    "methods": {},
    "version": 1
  },
  "userdoc": {
    "kind": "user",
    "methods": {},
    "version": 1
  }
}